{
  "contractName": "YourContract",
  "abi": [
    {
      "constant": true,
      "inputs": [],
      "name": "number",
      "outputs": [
        {
          "name": "",
          "type": "uint256"
        }
      ],
      "payable": false,
      "stateMutability": "view",
      "type": "function",
      "signature": "0x8381f58a"
    },
    {
      "constant": true,
      "inputs": [],
      "name": "owner",
      "outputs": [
        {
          "name": "",
          "type": "address"
        }
      ],
      "payable": false,
      "stateMutability": "view",
      "type": "function",
      "signature": "0x8da5cb5b"
    },
    {
      "inputs": [],
      "payable": false,
      "stateMutability": "nonpayable",
      "type": "constructor",
      "signature": "constructor"
    },
    {
      "constant": false,
      "inputs": [
        {
          "name": "_newNumber",
          "type": "uint256"
        }
      ],
      "name": "someFunction",
      "outputs": [],
      "payable": false,
      "stateMutability": "nonpayable",
      "type": "function",
      "signature": "0x7062c094"
    }
  ],
  "bytecode": "0x608060405260008054600160a060020a031916733a78b26e56ab0557075eafbffe2845a4e403a94a17905534801561003657600080fd5b50600060015561013f8061004b6000396000f3fe6080604052600436106100565763ffffffff7c01000000000000000000000000000000000000000000000000000000006000350416637062c094811461005b5780638381f58a146100875780638da5cb5b146100ae575b600080fd5b34801561006757600080fd5b506100856004803603602081101561007e57600080fd5b50356100ec565b005b34801561009357600080fd5b5061009c6100f1565b60408051918252519081900360200190f35b3480156100ba57600080fd5b506100c36100f7565b6040805173ffffffffffffffffffffffffffffffffffffffff9092168252519081900360200190f35b600155565b60015481565b60005473ffffffffffffffffffffffffffffffffffffffff168156fea165627a7a72305820d2ef66a8d622f8f81a774082871f560bdeedc2278bbada7a0f69d13821867a2d0029",
  "source": "pragma solidity >=0.4.18;\n\ncontract YourContract {\n    address public owner = 0x3a78B26e56AB0557075eAFbFFE2845a4e403a94A;\n    uint256 public number;\n\n    constructor() public {\n        number = 0;\n    }\n\n    function someFunction(uint256 _newNumber) public {\n        number = _newNumber;\n    }\n}\n",
  "sourcePath": "/home/santiago/Desktop/Crypto/React-Truffle-Template/contracts/YourContract.sol",
  "compiler": {
    "name": "solc",
    "version": "0.5.0+commit.1d4f565a.Emscripten.clang"
  },
  "schemaVersion": "3.0.2",
  "updatedAt": "2022-02-17T00:33:52.808Z",
  "devdoc": {
    "methods": {}
  },
  "userdoc": {
    "methods": {}
  }
}